{
	"data": {
		"bytecode": {
			"linkReferences": {},
			"object": "608060405234801561001057600080fd5b5060fc8061001f6000396000f3fe6080604052348015600f57600080fd5b506004361060465760003560e01c806306661abd14604b578063371303c01460675780636d4ce63c14606f578063b3bcfa8214608b575b600080fd5b60516093565b6040518082815260200191505060405180910390f35b606d6099565b005b607560ab565b6040518082815260200191505060405180910390f35b609160b4565b005b60005481565b600a6000808282540192505081905550565b60008054905090565b600a600080828254039250508190555056fea26469706673582212207fc13661061c603dd63fe7faa593dc541de88e3dc5e7d0f412f9d7ae73778b2464736f6c63430007060033",
			"opcodes": "PUSH1 0x80 PUSH1 0x40 MSTORE CALLVALUE DUP1 ISZERO PUSH2 0x10 JUMPI PUSH1 0x0 DUP1 REVERT JUMPDEST POP PUSH1 0xFC DUP1 PUSH2 0x1F PUSH1 0x0 CODECOPY PUSH1 0x0 RETURN INVALID PUSH1 0x80 PUSH1 0x40 MSTORE CALLVALUE DUP1 ISZERO PUSH1 0xF JUMPI PUSH1 0x0 DUP1 REVERT JUMPDEST POP PUSH1 0x4 CALLDATASIZE LT PUSH1 0x46 JUMPI PUSH1 0x0 CALLDATALOAD PUSH1 0xE0 SHR DUP1 PUSH4 0x6661ABD EQ PUSH1 0x4B JUMPI DUP1 PUSH4 0x371303C0 EQ PUSH1 0x67 JUMPI DUP1 PUSH4 0x6D4CE63C EQ PUSH1 0x6F JUMPI DUP1 PUSH4 0xB3BCFA82 EQ PUSH1 0x8B JUMPI JUMPDEST PUSH1 0x0 DUP1 REVERT JUMPDEST PUSH1 0x51 PUSH1 0x93 JUMP JUMPDEST PUSH1 0x40 MLOAD DUP1 DUP3 DUP2 MSTORE PUSH1 0x20 ADD SWAP2 POP POP PUSH1 0x40 MLOAD DUP1 SWAP2 SUB SWAP1 RETURN JUMPDEST PUSH1 0x6D PUSH1 0x99 JUMP JUMPDEST STOP JUMPDEST PUSH1 0x75 PUSH1 0xAB JUMP JUMPDEST PUSH1 0x40 MLOAD DUP1 DUP3 DUP2 MSTORE PUSH1 0x20 ADD SWAP2 POP POP PUSH1 0x40 MLOAD DUP1 SWAP2 SUB SWAP1 RETURN JUMPDEST PUSH1 0x91 PUSH1 0xB4 JUMP JUMPDEST STOP JUMPDEST PUSH1 0x0 SLOAD DUP2 JUMP JUMPDEST PUSH1 0xA PUSH1 0x0 DUP1 DUP3 DUP3 SLOAD ADD SWAP3 POP POP DUP2 SWAP1 SSTORE POP JUMP JUMPDEST PUSH1 0x0 DUP1 SLOAD SWAP1 POP SWAP1 JUMP JUMPDEST PUSH1 0xA PUSH1 0x0 DUP1 DUP3 DUP3 SLOAD SUB SWAP3 POP POP DUP2 SWAP1 SSTORE POP JUMP INVALID LOG2 PUSH5 0x6970667358 0x22 SLT KECCAK256 PUSH32 0xC13661061C603DD63FE7FAA593DC541DE88E3DC5E7D0F412F9D7AE73778B2464 PUSH20 0x6F6C634300070600330000000000000000000000 "
		},
		"gasEstimates": {
			"creation": {
				"codeDepositCost": "50400",
				"executionCost": "99",
				"totalCost": "50499"
			},
			"external": {
				"count()": "983",
				"dec()": "21021",
				"get()": "1035",
				"inc()": "20977"
			}
		},
		"methodIdentifiers": {
			"count()": "06661abd",
			"dec()": "b3bcfa82",
			"get()": "6d4ce63c",
			"inc()": "371303c0"
		}
	},
	"abi": [
		{
			"inputs": [],
			"name": "count",
			"outputs": [
				{
					"internalType": "uint256",
					"name": "",
					"type": "uint256"
				}
			],
			"stateMutability": "view",
			"type": "function"
		},
		{
			"inputs": [],
			"name": "dec",
			"outputs": [],
			"stateMutability": "nonpayable",
			"type": "function"
		},
		{
			"inputs": [],
			"name": "get",
			"outputs": [
				{
					"internalType": "uint256",
					"name": "",
					"type": "uint256"
				}
			],
			"stateMutability": "view",
			"type": "function"
		},
		{
			"inputs": [],
			"name": "inc",
			"outputs": [],
			"stateMutability": "nonpayable",
			"type": "function"
		}
	]
}